{
  "_format": "hh-sol-artifact-1",
  "contractName": "Lottery",
  "sourceName": "contracts/Lottery.sol",
  "abi": [
    {
      "inputs": [],
      "stateMutability": "nonpayable",
      "type": "constructor"
    },
    {
      "inputs": [],
      "name": "BuyTickets",
      "outputs": [],
      "stateMutability": "payable",
      "type": "function"
    },
    {
      "inputs": [],
      "name": "CurrentWinningReward",
      "outputs": [
        {
          "internalType": "uint256",
          "name": "",
          "type": "uint256"
        }
      ],
      "stateMutability": "view",
      "type": "function"
    },
    {
      "inputs": [],
      "name": "DrawWinnerTicket",
      "outputs": [],
      "stateMutability": "nonpayable",
      "type": "function"
    },
    {
      "inputs": [],
      "name": "IsWinner",
      "outputs": [
        {
          "internalType": "bool",
          "name": "",
          "type": "bool"
        }
      ],
      "stateMutability": "view",
      "type": "function"
    },
    {
      "inputs": [],
      "name": "RefundAll",
      "outputs": [],
      "stateMutability": "nonpayable",
      "type": "function"
    },
    {
      "inputs": [],
      "name": "RemainingTickets",
      "outputs": [
        {
          "internalType": "uint256",
          "name": "",
          "type": "uint256"
        }
      ],
      "stateMutability": "view",
      "type": "function"
    },
    {
      "inputs": [],
      "name": "WithdrawCommission",
      "outputs": [],
      "stateMutability": "nonpayable",
      "type": "function"
    },
    {
      "inputs": [],
      "name": "WithdrawWinnings",
      "outputs": [],
      "stateMutability": "nonpayable",
      "type": "function"
    },
    {
      "inputs": [],
      "name": "checkWinningsAmount",
      "outputs": [
        {
          "internalType": "uint256",
          "name": "",
          "type": "uint256"
        }
      ],
      "stateMutability": "view",
      "type": "function"
    },
    {
      "inputs": [],
      "name": "duration",
      "outputs": [
        {
          "internalType": "uint256",
          "name": "",
          "type": "uint256"
        }
      ],
      "stateMutability": "view",
      "type": "function"
    },
    {
      "inputs": [],
      "name": "expiration",
      "outputs": [
        {
          "internalType": "uint256",
          "name": "",
          "type": "uint256"
        }
      ],
      "stateMutability": "view",
      "type": "function"
    },
    {
      "inputs": [],
      "name": "getTickets",
      "outputs": [
        {
          "internalType": "address[]",
          "name": "",
          "type": "address[]"
        }
      ],
      "stateMutability": "view",
      "type": "function"
    },
    {
      "inputs": [
        {
          "internalType": "address",
          "name": "addr",
          "type": "address"
        }
      ],
      "name": "getWinningsForAddress",
      "outputs": [
        {
          "internalType": "uint256",
          "name": "",
          "type": "uint256"
        }
      ],
      "stateMutability": "view",
      "type": "function"
    },
    {
      "inputs": [],
      "name": "lastWinner",
      "outputs": [
        {
          "internalType": "address",
          "name": "",
          "type": "address"
        }
      ],
      "stateMutability": "view",
      "type": "function"
    },
    {
      "inputs": [],
      "name": "lastWinnerAmount",
      "outputs": [
        {
          "internalType": "uint256",
          "name": "",
          "type": "uint256"
        }
      ],
      "stateMutability": "view",
      "type": "function"
    },
    {
      "inputs": [],
      "name": "lotteryOperator",
      "outputs": [
        {
          "internalType": "address",
          "name": "",
          "type": "address"
        }
      ],
      "stateMutability": "view",
      "type": "function"
    },
    {
      "inputs": [],
      "name": "maxTickets",
      "outputs": [
        {
          "internalType": "uint256",
          "name": "",
          "type": "uint256"
        }
      ],
      "stateMutability": "view",
      "type": "function"
    },
    {
      "inputs": [],
      "name": "operatorTotalCommission",
      "outputs": [
        {
          "internalType": "uint256",
          "name": "",
          "type": "uint256"
        }
      ],
      "stateMutability": "view",
      "type": "function"
    },
    {
      "inputs": [],
      "name": "restartDraw",
      "outputs": [],
      "stateMutability": "nonpayable",
      "type": "function"
    },
    {
      "inputs": [],
      "name": "ticketCommission",
      "outputs": [
        {
          "internalType": "uint256",
          "name": "",
          "type": "uint256"
        }
      ],
      "stateMutability": "view",
      "type": "function"
    },
    {
      "inputs": [],
      "name": "ticketPrice",
      "outputs": [
        {
          "internalType": "uint256",
          "name": "",
          "type": "uint256"
        }
      ],
      "stateMutability": "view",
      "type": "function"
    },
    {
      "inputs": [
        {
          "internalType": "uint256",
          "name": "",
          "type": "uint256"
        }
      ],
      "name": "tickets",
      "outputs": [
        {
          "internalType": "address",
          "name": "",
          "type": "address"
        }
      ],
      "stateMutability": "view",
      "type": "function"
    },
    {
      "inputs": [
        {
          "internalType": "address",
          "name": "",
          "type": "address"
        }
      ],
      "name": "winnings",
      "outputs": [
        {
          "internalType": "uint256",
          "name": "",
          "type": "uint256"
        }
      ],
      "stateMutability": "view",
      "type": "function"
    }
  ],
  "bytecode": "0x608060405260006002553480156200001657600080fd5b5033600160006101000a81548173ffffffffffffffffffffffffffffffffffffffff021916908373ffffffffffffffffffffffffffffffffffffffff16021790555061070842620000689190620000ad565b600081905550620000e8565b6000819050919050565b7f4e487b7100000000000000000000000000000000000000000000000000000000600052601160045260246000fd5b6000620000ba8262000074565b9150620000c78362000074565b9250828201905080821115620000e257620000e16200007e565b5b92915050565b61193980620000f86000396000f3fe6080604052600436106101405760003560e01c806371827b7b116100b6578063ba946d791161006f578063ba946d79146103c1578063c6944fa0146103ec578063dd64e53414610417578063ea3a149914610454578063f261326914610491578063fe188184146104a857610140565b806371827b7b1461030857806391d8b14e1461031f57806393a563b51461032957806396c85ef3146103545780639b8947031461037f578063a88f4672146103aa57610140565b80634665096d116101085780634665096d146102085780634788af7c146102335780634ed026221461024a57806350b44712146102755780635a58acdd146102b25780636032a4f9146102dd57610140565b806306f7f3bf146101455780630789c607146101705780630fb5a6b41461019b5780631209b1f6146101c657806335580df2146101f1575b600080fd5b34801561015157600080fd5b5061015a6104d3565b604051610167919061104e565b60405180910390f35b34801561017c57600080fd5b506101856104d9565b604051610192919061104e565b60405180910390f35b3480156101a757600080fd5b506101b061052b565b6040516101bd919061104e565b60405180910390f35b3480156101d257600080fd5b506101db610531565b6040516101e8919061104e565b60405180910390f35b3480156101fd57600080fd5b5061020661053c565b005b34801561021457600080fd5b5061021d61062b565b60405161022a919061104e565b60405180910390f35b34801561023f57600080fd5b50610248610631565b005b34801561025657600080fd5b5061025f610905565b60405161026c9190611159565b60405180910390f35b34801561028157600080fd5b5061029c600480360381019061029791906111ac565b610993565b6040516102a991906111e8565b60405180910390f35b3480156102be57600080fd5b506102c76109d2565b6040516102d491906111e8565b60405180910390f35b3480156102e957600080fd5b506102f26109f8565b6040516102ff919061104e565b60405180910390f35b34801561031457600080fd5b5061031d610a03565b005b610327610b23565b005b34801561033557600080fd5b5061033e610c7f565b60405161034b919061104e565b60405180910390f35b34801561036057600080fd5b50610369610c98565b604051610376919061121e565b60405180910390f35b34801561038b57600080fd5b50610394610ce1565b6040516103a1919061104e565b60405180910390f35b3480156103b657600080fd5b506103bf610ce6565b005b3480156103cd57600080fd5b506103d6610e4f565b6040516103e3919061104e565b60405180910390f35b3480156103f857600080fd5b50610401610e55565b60405161040e919061104e565b60405180910390f35b34801561042357600080fd5b5061043e60048036038101906104399190611265565b610e74565b60405161044b919061104e565b60405180910390f35b34801561046057600080fd5b5061047b60048036038101906104769190611265565b610ebd565b604051610488919061104e565b60405180910390f35b34801561049d57600080fd5b506104a6610ed5565b005b3480156104b457600080fd5b506104bd610fd1565b6040516104ca91906111e8565b60405180910390f35b60045481565b6000803390506000600560008373ffffffffffffffffffffffffffffffffffffffff1673ffffffffffffffffffffffffffffffffffffffff168152602001908152602001600020549050809250505090565b61070881565b662386f26fc1000081565b600160009054906101000a900473ffffffffffffffffffffffffffffffffffffffff1673ffffffffffffffffffffffffffffffffffffffff163373ffffffffffffffffffffffffffffffffffffffff16146105cc576040517f08c379a00000000000000000000000000000000000000000000000000000000081526004016105c390611315565b60405180910390fd5b60003390506000600254905060006002819055508173ffffffffffffffffffffffffffffffffffffffff166108fc829081150290604051600060405180830381858888f19350505050158015610626573d6000803e3d6000fd5b505050565b60005481565b600160009054906101000a900473ffffffffffffffffffffffffffffffffffffffff1673ffffffffffffffffffffffffffffffffffffffff163373ffffffffffffffffffffffffffffffffffffffff16146106c1576040517f08c379a00000000000000000000000000000000000000000000000000000000081526004016106b890611315565b60405180910390fd5b600060068054905011610709576040517f08c379a000000000000000000000000000000000000000000000000000000000815260040161070090611381565b60405180910390fd5b60006006805490504361071c91906113d0565b40905060004282604051602001610734929190611450565b6040516020818303038152906040528051906020012060001c905060006006805490508261076291906114ab565b905060006006828154811061077a576107796114dc565b5b9060005260206000200160009054906101000a900473ffffffffffffffffffffffffffffffffffffffff16905080600360006101000a81548173ffffffffffffffffffffffffffffffffffffffff021916908373ffffffffffffffffffffffffffffffffffffffff16021790555066038d7ea4c68000662386f26fc1000061080291906113d0565b600680549050610812919061150b565b600560008373ffffffffffffffffffffffffffffffffffffffff1673ffffffffffffffffffffffffffffffffffffffff1681526020019081526020016000206000828254610860919061154d565b92505081905550600560008273ffffffffffffffffffffffffffffffffffffffff1673ffffffffffffffffffffffffffffffffffffffff1681526020019081526020016000205460048190555066038d7ea4c680006006805490506108c5919061150b565b600260008282546108d6919061154d565b92505081905550600660006108eb9190610ff7565b610708426108f9919061154d565b60008190555050505050565b6060600680548060200260200160405190810160405280929190818152602001828054801561098957602002820191906000526020600020905b8160009054906101000a900473ffffffffffffffffffffffffffffffffffffffff1673ffffffffffffffffffffffffffffffffffffffff168152602001906001019080831161093f575b5050505050905090565b600681815481106109a357600080fd5b906000526020600020016000915054906101000a900473ffffffffffffffffffffffffffffffffffffffff1681565b600160009054906101000a900473ffffffffffffffffffffffffffffffffffffffff1681565b66038d7ea4c6800081565b610a0b610c98565b610a4a576040517f08c379a0000000000000000000000000000000000000000000000000000000008152600401610a41906115cd565b60405180910390fd5b60003390506000600560008373ffffffffffffffffffffffffffffffffffffffff1673ffffffffffffffffffffffffffffffffffffffff1681526020019081526020016000205490506000600560008473ffffffffffffffffffffffffffffffffffffffff1673ffffffffffffffffffffffffffffffffffffffff168152602001908152602001600020819055508173ffffffffffffffffffffffffffffffffffffffff166108fc829081150290604051600060405180830381858888f19350505050158015610b1e573d6000803e3d6000fd5b505050565b6000662386f26fc1000034610b3891906114ab565b14604051602001610b489061166a565b60405160208183030381529060405290610b98576040517f08c379a0000000000000000000000000000000000000000000000000000000008152600401610b8f91906116fe565b60405180910390fd5b506000662386f26fc1000034610bae9190611720565b9050610bb8610c7f565b811115610bfa576040517f08c379a0000000000000000000000000000000000000000000000000000000008152600401610bf19061179d565b60405180910390fd5b60005b81811015610c7b576006339080600181540180825580915050600190039060005260206000200160009091909190916101000a81548173ffffffffffffffffffffffffffffffffffffffff021916908373ffffffffffffffffffffffffffffffffffffffff1602179055508080610c73906117bd565b915050610bfd565b5050565b60006006805490506064610c9391906113d0565b905090565b600080600560003373ffffffffffffffffffffffffffffffffffffffff1673ffffffffffffffffffffffffffffffffffffffff1681526020019081526020016000205411905090565b606481565b600054421015610d2b576040517f08c379a0000000000000000000000000000000000000000000000000000000008152600401610d2290611851565b60405180910390fd5b60005b600680549050811015610e3e57600060068281548110610d5157610d506114dc565b5b9060005260206000200160009054906101000a900473ffffffffffffffffffffffffffffffffffffffff169050600060068381548110610d9457610d936114dc565b5b9060005260206000200160006101000a81548173ffffffffffffffffffffffffffffffffffffffff021916908373ffffffffffffffffffffffffffffffffffffffff1602179055508073ffffffffffffffffffffffffffffffffffffffff166108fc662386f26fc100009081150290604051600060405180830381858888f19350505050158015610e29573d6000803e3d6000fd5b50508080610e36906117bd565b915050610d2e565b5060066000610e4d9190610ff7565b565b60025481565b6000662386f26fc10000600680549050610e6f919061150b565b905090565b6000600560008373ffffffffffffffffffffffffffffffffffffffff1673ffffffffffffffffffffffffffffffffffffffff168152602001908152602001600020549050919050565b60056020528060005260406000206000915090505481565b600160009054906101000a900473ffffffffffffffffffffffffffffffffffffffff1673ffffffffffffffffffffffffffffffffffffffff163373ffffffffffffffffffffffffffffffffffffffff1614610f65576040517f08c379a0000000000000000000000000000000000000000000000000000000008152600401610f5c90611315565b60405180910390fd5b600060068054905014610fad576040517f08c379a0000000000000000000000000000000000000000000000000000000008152600401610fa4906118e3565b60405180910390fd5b60066000610fbb9190610ff7565b61070842610fc9919061154d565b600081905550565b600360009054906101000a900473ffffffffffffffffffffffffffffffffffffffff1681565b50805460008255906000526020600020908101906110159190611018565b50565b5b80821115611031576000816000905550600101611019565b5090565b6000819050919050565b61104881611035565b82525050565b6000602082019050611063600083018461103f565b92915050565b600081519050919050565b600082825260208201905092915050565b6000819050602082019050919050565b600073ffffffffffffffffffffffffffffffffffffffff82169050919050565b60006110c082611095565b9050919050565b6110d0816110b5565b82525050565b60006110e283836110c7565b60208301905092915050565b6000602082019050919050565b600061110682611069565b6111108185611074565b935061111b83611085565b8060005b8381101561114c57815161113388826110d6565b975061113e836110ee565b92505060018101905061111f565b5085935050505092915050565b6000602082019050818103600083015261117381846110fb565b905092915050565b600080fd5b61118981611035565b811461119457600080fd5b50565b6000813590506111a681611180565b92915050565b6000602082840312156111c2576111c161117b565b5b60006111d084828501611197565b91505092915050565b6111e2816110b5565b82525050565b60006020820190506111fd60008301846111d9565b92915050565b60008115159050919050565b61121881611203565b82525050565b6000602082019050611233600083018461120f565b92915050565b611242816110b5565b811461124d57600080fd5b50565b60008135905061125f81611239565b92915050565b60006020828403121561127b5761127a61117b565b5b600061128984828501611250565b91505092915050565b600082825260208201905092915050565b7f43616c6c6572206973206e6f7420746865206c6f7474657279206f706572617460008201527f6f72000000000000000000000000000000000000000000000000000000000000602082015250565b60006112ff602283611292565b915061130a826112a3565b604082019050919050565b6000602082019050818103600083015261132e816112f2565b9050919050565b7f4e6f207469636b65747320776572652070757263686173656400000000000000600082015250565b600061136b601983611292565b915061137682611335565b602082019050919050565b6000602082019050818103600083015261139a8161135e565b9050919050565b7f4e487b7100000000000000000000000000000000000000000000000000000000600052601160045260246000fd5b60006113db82611035565b91506113e683611035565b92508282039050818111156113fe576113fd6113a1565b5b92915050565b6000819050919050565b61141f61141a82611035565b611404565b82525050565b6000819050919050565b6000819050919050565b61144a61144582611425565b61142f565b82525050565b600061145c828561140e565b60208201915061146c8284611439565b6020820191508190509392505050565b7f4e487b7100000000000000000000000000000000000000000000000000000000600052601260045260246000fd5b60006114b682611035565b91506114c183611035565b9250826114d1576114d061147c565b5b828206905092915050565b7f4e487b7100000000000000000000000000000000000000000000000000000000600052603260045260246000fd5b600061151682611035565b915061152183611035565b925082820261152f81611035565b91508282048414831517611546576115456113a1565b5b5092915050565b600061155882611035565b915061156383611035565b925082820190508082111561157b5761157a6113a1565b5b92915050565b7f43616c6c6572206973206e6f7420612077696e6e657200000000000000000000600082015250565b60006115b7601683611292565b91506115c282611581565b602082019050919050565b600060208201905081810360008301526115e6816115aa565b9050919050565b600081905092915050565b7f7468652076616c7565206d757374206265206d756c7469706c65206f6620302e60008201527f3031204574686572000000000000000000000000000000000000000000000000602082015250565b60006116546028836115ed565b915061165f826115f8565b602882019050919050565b600061167582611647565b9150819050919050565b600081519050919050565b60005b838110156116a857808201518184015260208101905061168d565b60008484015250505050565b6000601f19601f8301169050919050565b60006116d08261167f565b6116da8185611292565b93506116ea81856020860161168a565b6116f3816116b4565b840191505092915050565b6000602082019050818103600083015261171881846116c5565b905092915050565b600061172b82611035565b915061173683611035565b9250826117465761174561147c565b5b828204905092915050565b7f4e6f7420656e6f756768207469636b65747320617661696c61626c652e000000600082015250565b6000611787601d83611292565b915061179282611751565b602082019050919050565b600060208201905081810360008301526117b68161177a565b9050919050565b60006117c882611035565b91507fffffffffffffffffffffffffffffffffffffffffffffffffffffffffffffffff82036117fa576117f96113a1565b5b600182019050919050565b7f746865206c6f7474657279206e6f742065787069726564207965740000000000600082015250565b600061183b601b83611292565b915061184682611805565b602082019050919050565b6000602082019050818103600083015261186a8161182e565b9050919050565b7f43616e6e6f74205265737461727420447261772061732044726177206973206960008201527f6e20706c61790000000000000000000000000000000000000000000000000000602082015250565b60006118cd602683611292565b91506118d882611871565b604082019050919050565b600060208201905081810360008301526118fc816118c0565b905091905056fea2646970667358221220a01aee3af1ec58b4cedaaa505c409098892246f937335148c2b3c397bb8eebce64736f6c63430008110033",
  "linkReferences": {},
  "deployedLinkReferences": {}
}